:100000000C94AD0F0C94D50F0C94D50F0C94D50F08
:100010000C94D50F0C94D50F0C94D50F0C949526F9
:100020000C94D50F0C94D50F0C94D50F0C94D50FC0
:100030000C94D50F0C94D50F0C94D50F0C94D50FB0
:100040000C944B260C94D50F0C9417270C94F12686
:100050000C94D50F0C94D50F0C94D50F0C94D50F90
:100060000C9449270C94D50F07634236B79BD8A749
:100070001A39685618AEBAAB558C1D3CB7CC5763CD
:10008000BD6DEDFD753EF6177231BF000000803F7B
:100090004C4F572042415454000000000000000023
:1000A0000000000000000000000000000000000050
:1000B0000000000000000000000000000000000040
:1000C0000000000000000000000000000000000030
:1000D0000000000000000000000000000000000020
:1000E0000000000000000000000000000000000010
:1000F0000000000000000000000000000000000000
:1001000000000000000000000000000000000000EF
:1001100000000000000000000000000000000000DF
:10012000000000000000000000000000000080004F
:10013000001200000000000000000000000080002D
:10014000001000000000000000000000000081E13D
:10015000E1D2B8740000000000000000000083330A
:100160003332C4CC00000000000000000000821206
:10017000121285040000000000000000000082123E
:10018000121285040000000000000000000082122E
:10019000121285040000000000000000000082121E
:1001A0003212848C00000000000000000000F9E121
:1001B000D1F2847C0000000000000000000000007C
:1001C000000001040000000000000000000000002A
:1001D000000000CC00000000000000000000000053
:1001E00000000030000000000000000000000000DF
:1001F00000000000000000000000000000000000FF
:1002000000000000000000000000000000000000EE
:1002100000000000000000000000000000000000DE
:1002200000000000000000000000000000000000CE
:1002300000000000000000000000000000000000BE
:1002400000000000000000000000000000000000AE
:10025000000000000000000000000000000000009E
:100260000000000000000000000003FFFFFFFFFF90
:10027000FFFFFFFFFFFFFF800000060000000000FF
:1002800000000000000000C00000040000000000AA
:100290000000000000000040000006000000000018
:1002A00000000000000000C0000003FFFFFFFFFF90
:1002B000FFFFFFFFFFFFFF800000000000000000C5
:1002C000000000000000000000000000000000002E
:1002D000000000000000000000000000000000001E
:1002E000000000000000000000000000000000000E
:1002F00000000000000000000000000000000000FE
:1003000000000000000000000000000000000000ED
:1003100000000000000000000000000000000000DD
:1003200000000000000000000000000000000000CD
:1003300000000000000000000000000000000000BD
:1003400000000000000000000000000000000000AD
:10035000000000000000000000000000000000009D
:10036000000000000000000000000000000000008D
:10037000000000000000000000000000000000007D
:10038000000000000000000000000000000000006D
:10039000000000000000000000000000000000005D
:1003A000000000000000000000000000000000004D
:1003B000000000000000000000000000000000003D
:1003C000000000000000000000000000000000002D
:1003D000000000000000000000000000000000001D
:1003E000000000000000000000000000000000000D
:1003F00000000000000000000000000000000000FD
:1004000000000000000000000000000000000000EC
:1004100000000000000000000000000000000000DC
:1004200000000000000000000000000000000000CC
:1004300000000000000000000000000000000000BC
:1004400000000000000000000000000000000000AC
:10045000000000000000000000000000000000009C
:10046000000000000000000000000000000000008C
:10047000000000000000000000000000000000007C
:10048000000000000000000000000000000000006C
:100490000000000000000000002500000000000037
:1004A000000000000000000000000000000000004C
:1004B000000000000000000000000000000000003C
:1004C000000000000000000000000000000000002C
:1004D000000000000000000000000000000000001C
:1004E000000000000000000000000000000000000C
:1004F00000000000000000000000000000000000FC
:1005000000000000000000000000000000000000EB
:1005100000000000000000000000000000000000DB
:1005200000000000000000000000000000000000CB
:1005300000000000000000000000000000000000BB
:1005400000000000000000000000000000000000AB
:10055000000000000000000000000000000000009B
:100560007FFFFFFFFFF00000000000000000000020
:10057000FFFFFFFFFFF80000000000000000000088
:10058000C0000000001E000000000000000000008D
:10059000C0000000001F000000000000000000007C
:1005A000C000000000030000000000000000000088
:1005B000C000000000030000000000000000000078
:1005C000C000000000030000000000000000000068
:1005D000C000000000030000000000000000000058
:1005E000C000000000030000000000000000000048
:1005F000C000000000030000000000000000000038
:10060000C000000000030000000000000000000027
:10061000C000000000030000000000000000000017
:10062000C000000000030000000000000000000007
:10063000C0000000000300000000000000000000F7
:10064000C0000000000300000000000000000000E7
:10065000C0000000000300000000000000000000D7
:10066000C0000000001F00000000000000000000AB
:10067000C0000000001E000000000000000000009C
:10068000C000000000180000000000000000000092
:10069000FFFFFFFFFFF80000000000000000000067
:1006A0007FFFFFFFFFF000000000000000000000DF
:1006B000000000000000000000000000000000003A
:1006C000000000000000000000000000000000002A
:1006D000000000000000000000000000000000001A
:1006E000000000000000000000000000000000000A
:1006F00000000000000000000000000000000000FA
:1007000000000000000000000000000000000000E9
:1007100000000000000000000000000000000000D9
:1007200000000000000000000000000000000000C9
:1007300000000000000000000000000000000000B9
:1007400000000000000000000000000000000000A9
:100750000000000000000000000000000000000099
:100760000000000000000000000000000000000089
:100770000000000000000000000000000000000079
:100780000000000000000000000000000000000069
:100790000000000000000000000000000000000059
:1007A0000000000000000000000000000000000049
:1007B0000000000000000000000000000000000039
:1007C0000000000000000000000000000000000029
:1007D0000000000000000000000000000000000019
:1007E0000000000000000000000000000000000009
:1007F00000000000000000000000000000000000F9
:1008000000000000000000000000000000000000E8
:1008100000000000000000000000000000000000D8
:1008200000000000000000000000000000000000C8
:1008300000000000000000000000000000000000B8
:1008400000000000000000000000000000000000A8
:100850000000000000000000000000000000000098
:100860000000000000000000000000000000000088
:100870000000000000000000000000000000000078
:100880000000000000000000000000000000000068
:100890000000000000000000000000000000000058
:1008A0000000000000000000000000000103070F2E
:1008B0001F3F7F0080C0E0F0F8FCFE000000000059
:1008C0003E5B4F5B3E3E6B4F6B3E1C3E7C3E1C18BE
:1008D0003C7E3C181C577D571C1C5E7F5E1C00181C
:1008E0003C1800FFE7C3E7FF0018241800FFE7DB10
:1008F000E7FF30483A060E2629792926407F05056C
:1009000007407F05253F5A3CE73C5A7F3E1C1C08A8
:10091000081C1C3E7F14227F22145F5F005F5F066D
:10092000097F017F006689956A606060606094A2BB
:10093000FFA29408047E040810207E201008082AD4
:100940001C08081C2A08081E101010100C1E0C1E73
:100950000C30383E3830060E3E0E06000000000017
:1009600000005F00000007000700147F147F1424BC
:100970002A7F2A1223130864623649562050000841
:10098000070300001C2241000041221C002A1C7F9A
:100990001C2A08083E080800807030000808080873
:1009A00008000060600020100804023E5149453EE6
:1009B00000427F400072494949462141494D331860
:1009C00014127F1027454545393C4A494931412198
:1009D0001109073649494936464949291E0000147C
:1009E00000000040340000000814224114141414C4
:1009F00014004122140802015909063E415D594E76
:100A00007C1211127C7F494949363E414141227F87
:100A10004141413E7F494949417F090909013E4120
:100A20004151737F0808087F00417F410020404109
:100A30003F017F081422417F404040407F021C025A
:100A40007F7F0408107F3E4141413E7F090909062E
:100A50003E4151215E7F0919294626494949320301
:100A6000017F01033F4040403F1F2040201F3F4087
:100A700038403F6314081463030478040361594940
:100A80004D43007F41414102040810200041414193
:100A90007F04020102044040404040000307080078
:100AA00020545478407F28444438384444442838FB
:100AB0004444287F385454541800087E090218A46E
:100AC000A49C787F0804047800447D4000204040C6
:100AD0003D007F1028440000417F40007C047804E2
:100AE000787C080404783844444438FC18242418DA
:100AF00018242418FC7C0804040848545454240482
:100B0000043F44243C4040207C1C2040201C3C40AE
:100B100030403C44281028444C9090907C446454CD
:100B20004C440008364100000077000000413608C0
:100B30000002010204023C2623263C1EA1A16112F0
:100B40003A4040207A38545455592155557941221C
:100B500054547842215554784020545579400C1E05
:100B600052721239555555593954545459395554AE
:100B700054580000457C410002457D420001457CFF
:100B8000407D1211127DF0282528F07C5455450037
:100B90002054547C547C0A097F4932494949323AED
:100BA0004444443A324A4848303A4141217A3A4230
:100BB000402078009DA0A07D3D4242423D3D404006
:100BC000403D3C24FF2424487E4943662B2FFC2FC4
:100BD0002BFF0929F620C0887E090320545479414F
:100BE0000000447D413048484A32384040227A0073
:100BF0007A0A0A727D0D19317D2629292F28262986
:100C000029292630484D40203808080808080808D7
:100C100008382F10C8ACBA2F102834FA00007B0017
:100C20000008142A142222142A14085500550055CD
:100C3000AA55AA55AAFF55FF55FF000000FF001056
:100C40001010FF00141414FF001010FF00FF10100C
:100C5000F010F0141414FC001414F700FF0000FF4F
:100C600000FF1414F404FC141417101F10101F10AC
:100C70001F1414141F00101010F0000000001F10AB
:100C80001010101F10101010F010000000FF1010B6
:100C900010101010101010FF10000000FF140000C2
:100CA000FF00FF00001F10170000FC04F4141417CD
:100CB00010171414F404F40000FF00F714141414B3
:100CC000141414F700F7141414171410101F101F25
:100CD000141414F4141010F010F000001F101F0072
:100CE00000001F14000000FC140000F010F01010B1
:100CF000FF10FF141414FF141010101F0000000048
:100D0000F010FFFFFFFFFFF0F0F0F0F0FFFFFF003B
:100D100000000000FFFF0F0F0F0F0F38444438444E
:100D2000FC4A4A4A347E02020606027E027E0263C2
:100D3000554941633844443C04407E201E2006024D
:100D40007E020299A5E7A5991C2A492A1C4C72012A
:100D5000724C304A4D4D303048784830BC625A466B
:100D60003D3E494949007E0101017E2A2A2A2A2A5C
:100D700044445F444440514A444040444A51400046
:100D800000FF0103E080FF000008086B6B083612CB
:100D9000362436060F090F06000018180000001050
:100DA00010003040FF0101001F01011E00191D1736
:100DB00012003C3C3C3C0000000000DB40A4A62E9E
:100DC000AFDA0281DA1281DA02818F2000A1C8D362
:100DD00000408DAED580A80000600000000000003B
:100DE0000000000000000000E00000000000000023
:100DF00000000000000001E0000000000000000012
:100E0000000000000001F0000000000000000000F1
:100E10000000000003F000000000000000000000DF
:100E200000000007F00000000000000000000000CB
:100E3000000007F8000000000000000000000000B3
:100E4000000FF800000003C0007E000001E0007FFA
:100E50000FF800000003C000FE000001E000FFEFFB
:100E6000F800000003C000FE000001E000FFFFF8F2
:100E700000000003C000F00000000F007FFE7FC0F4
:100E8000000003C000F00000000F003FFE7FF83FAD
:100E9000F1FBCFFCFEF3BC3DEFE01FFE7FFF7FFBCD
:100EA000FFDFFEFEFFBC3DEFE01FC6FFFF7FFBFF45
:100EB000DFFEFEFFBC3DEFE00FE3C7FE787BC3DE45
:100EC0001EF0FFBC3DEF0007FF87FC787BC3DE1EF2
:100ED000F0F83C3DEF0001FFFFF0007BC3C01EF0C7
:100EE000F03C3DEF0001F37FE03FFBC3CFFEF0F0AD
:100EF0003C3DEF0003E33F807FFBC3DFFEF0F03CAF
:100F00003DEF0007E73C00787BC3DE1EF0F03C3D80
:100F1000EF0007FFBE00787BC3DE1EF0F03C3DEF24
:100F20000007FFFE00787BC3DE1EF0F03C3DEF00C3
:100F30000FFFFE007FFBFFDFFEF0F03FFDEFE00F55
:100F4000FFFF007FFBFFDFFEF0F03FFDEFE00FF95A
:100F5000FF003E79F9CF9EF0F01F3DE7E01FF1FF63
:100F60000000000000000000000000001F80FF00E3
:100F70007FFFFFFFFFFFFFFFFFFFE01C007F007F01
:100F8000FFFFFFFEB46D888D18E000001F007FFF9B
:100F9000FFFFFE95AD7DB577E000000F007FFFFFFE
:100FA000FFFEA5AD9D8D19E0000006007FFFFFFF4D
:100FB000FEB5ADEDB57EE000000000000180000050
:100FC000000000000000000380000000000000009E
:100FD000000007C000000000000000000007C00083
:100FE00000000000000000000FC000000000000032
:100FF0000000001FE00000000000000000001FE0F3
:101000000000000000000000003FE00000000000C1
:10101000000000003FF00000000000000000007F22
:10102000F0000000000000001FF87FF0000000004A
:101030000000003FFE7FF0000000000000003FFFC6
:101040007FF0000000000000001FFFFBE000000038
:10105000000000000FFFF9FFC00000000000000FBB
:10106000FFF9FFF800000000000007FFF1FFFF009C
:10107000000000000003FC73FFFF80000000000080
:1010800001FE3FFFFF80000000000000FF1E0FFF79
:10109000000000000000007FFE1FFC0000000000B8
:1010A00000003FFFFFF8000000000000000FDFFF1E
:1010B000E0000000000000001F19FFC00000000059
:1010C0000000003F3CFF00000000000000007E7CAC
:1010D000F800000000000000007FFE7C000000001F
:1010E00000000000FFFFFC0000000000000000FF07
:1010F000FFFE0000000000000000FFFFFE000000F7
:101100000000000001FFEFFE0000000000000001F1
:10111000FFCFFE0000000000000003FF07FE0000FC
:10112000000000000003FC07FE00000000000000BB
:1011300003F003FE00000000000000018000FE003C
:101140000000000000000000007E00000000000021
:10115000000000003E000000000000000000000C45
:10116000000000000000078000FC000003C0000039
:1011700000078001FC000003C0000000078001FCA4
:10118000000003C0000000078001E00000001E0016
:101190000000078001E00000001E007FE3F79FF9D8
:1011A000FDE7787BDFC0FFF7FFBFFDFDFF787BDF4A
:1011B000C0FFF7FFBFFDFDFF787BDFC0F0F787BC06
:1011C0003DE1FF787BDE00F0F787BC3DE1F0787B06
:1011D000DE0000F787803DE1E0787BDE007FF78767
:1011E0009FFDE1E0787BDE00FFF787BFFDE1E0785F
:1011F0007BDE00F0F787BC3DE1E0787BDE00F0F7B6
:1012000087BC3DE1E0787BDE00F0F787BC3DE1E0A4
:10121000787BDE00FFF7FFBFFDE1E07FFBDFC0FF73
:10122000F7FFBFFDE1E07FFBDFC07CF3F39F3DE113
:10123000E03E7BCFC0000000000000000000000086
:10124000FFFFFFFFFFFFFFFFFFFFC0FFFFFFFFFDEF
:1012500068DB111A31C0FFFFFFFFFD2B5AFB6AEF5D
:10126000C0FFFFFFFFFD4B5B3B1A33C0FFFFFFFFDB
:10127000FD6B5BDB6AFDC04C5F5245415200525F23
:1012800052454152004C5F424F545400525F424F0E
:101290005454004C5F46524F4E5400525F46524FDA
:1012A0004E5400760076007600760076000000004E
:1012B000000000000000000000000000000000002E
:1012C000000000000000000000000000000000001E
:1012D000000000000000000000000000000000000E
:1012E00000000000000000000000000000000000FE
:1012F00000000000000000000000000000000000EE
:1013000000000000000000000000000000000000DD
:1013100000000000000000000000000000000000CD
:1013200000000000000000000000000000000000BD
:1013300000000000000000000000000000000000AD
:10134000000000000000000000000000000000009D
:10135000000000000000000000000000000000008D
:101360000000000000000000000000000007FFFF78
:1013700080000000000000000000000F8007FFFF59
:10138000E0000000000000000000003FC007FFFF79
:10139000F0000000000000000000003FE007FFFF39
:1013A000F8000000000000000000007FE007FFFFE1
:1013B000FC000000000000000000007FE007FFFFCD
:1013C000FE000000000000000000007FE007FFFFBB
:1013D000FE000000000000000000007FE007FFFFAB
:1013E000FF000000000000000000003FC007FFFFFA
:1013F000FF000000000000000000001FC000000708
:10140000FF000000000000000000000F00000007C7
:10141000FF00780000000000000000000000000F46
:10142000FF01FC03C0003FF00FFC003FE000001F85
:10143000FE0FFE07F000FFFC3FFF003FE000007FD3
:10144000FE07FF0FFA03FFFFFFFF803FE00000FFF2
:10145000FE03FF0FFE07FFFFFFFFE03FE00001FF7D
:10146000FC03FF1FFE0FFFFFFFFFE03FE00007FF51
:10147000F803FF1FF80FFFFFFFFFF03FE0000FFF33
:10148000F003FE0FF81FFFFFFFFFF83FE0001FFF14
:10149000E001FE0FF83FFFFFFFFFF83FE0007FFF96
:1014A0008000F807F03FFFFFFFFFFC3FE000FFFF79
:1014B00000000003E03FF87FFF3FFC3FE001FFFE3C
:1014C00000000000003FF03FFC0FFC3FE003FFFC8A
:1014D00000000000003FF01FF80FFC3FE003FFF0AA
:1014E000001FF000007FE01FF807FE3FE007FFE06D
:1014F000001FF007807FE01FF807FE3FE007FFC0F6
:10150000001FF80FFC7FE01FF807FE3FE007FF0019
:10151000001FF80FFC7FE01FF807FE3FE007FE000A
:10152000001FFC3FFC7FE01FF807FE7FE007FFFF86
:10153000FE1FFFFFFC7FE01FF807FFFFE007FFFF34
:10154000FF0FFFFFF87FE01FF807FFFFE007FFFF37
:10155000FF0FFFFFF87FE01FF803FFFFE007FFFF2B
:10156000FF07FFFFF07FE01FF803FFFFC003FFFF4F
:10157000FF07FFFFE07FE01FF801FFFFC003FFFF51
:10158000FF03FFFFE07FE01FF801FFFF8001FFFF87
:10159000FF01FFFFC07FE01FF800FFFF0000FFFF1B
:1015A000FF007FFF007FE01FF8007FFE00003FFF8D
:1015B000FF001FFC007FE01FF8001FF8000007FF7E
:1015C000FE0003E0003FE00FF00003C00000000059
:1015D000000000000000000000000000000000000B
:1015E00000000000000000000000000000000000FB
:1015F00000000000000000000000000000000000EB
:1016000000000000000000000000000000000000DA
:1016100000000000000000000000000000000000CA
:1016200000000000000000000000000000000000BA
:1016300000000000000000000000000000000000AA
:10164000000000000000000000000000000000009A
:10165000000000000000000000000000000000008A
:10166000000000000000000000000000000000007A
:10167000000000000000000000000000000000006A
:10168000000000000000000000000000000000005A
:10169000000000000000000000000000000000004A
:1016A0000000000000000000000000000057616919
:1016B0007420746F20426F6F74004E6F7420436803
:1016C000617267696E6700000000000000000000A2
:1016D000000000000000000000000000000000000A
:1016E00000000000000000000000000000000000FA
:1016F00000000000000000000000000000000000EA
:1017000000000000000000000000000000000000D9
:1017100000000000000000000000000000000000C9
:1017200000000000000000000000000000000000B9
:1017300000000000000000000000000000000000A9
:101740000000000000000000000000000000000099
:101750000000000000000000000000000000000089
:101760000000000000000000000000000000000079
:1017700000000000000000001E50004000000C802F
:1017800000010000000000000200000000000480D2
:10179000000100000000000004896E40E1D5C1C2D4
:1017A000227533C113E00000048991411236208272
:1017B000228D642112300000088911420214208118
:1017C000748587E1121000000889114202142081FB
:1017D00054858401121000001089114112342080B8
:1017E000888D6421123000001E711141F1D42080D7
:1017F000887533C0E3E00000000000000000000036
:1018000000000000020000000000000000000000D6
:1018100000000000020000000000000000000000C6
:1018200000000000000000000000000000000000B8
:1018300000000000000000000000000000000000A8
:101840000000000000000000000000000000000098
:101850000000000000000000000000000000000088
:101860000000000000000000000000000000000078
:101870000000000000000000000000000000000068
:10188000000000000000000600000003000000004F
:101890000000C0000000601F8000000FC0000000BA
:1018A0000003F0000001F81FC000001FC00000008E
:1018B0000003F8000003F83FE000003FE0000000F4
:1018C0000007FC000007FC3FF000007FE000000084
:1018D0000007FE00000FFC1FFC0001FFC00000001D
:1018E0000003FF80003FF81FFE0003FFC000000060
:1018F0000003FFC0007FF807FF0007FF00000000A3
:101900000000FFE000FFE003FFC01FFE000000003A
:1019100000007FF803FFC001FFE03FFC0000000073
:1019200000003FFC07FF8000FFF07FF80000000090
:1019300000001FFE0FFF00003FF8FFE00000000066
:10194000000007FF1FFC00001FFFFFC00000000099
:10195000000003FFFFF800000FFFFF800000000001
:10196000000001FFFFF0000007FFFF000000000083
:10197000000000FFFFE0000001FFFC00000000008D
:101980000000003FFF80000000FFF80000000000A2
:101990000000001FFF00000000FFF8000000000032
:1019A0000000001FFF00000001FFFC00000000001D
:1019B0000000003FFF80000007FFFF000000000064
:1019C000000000FFFFE000000FFFFF8000000000AC
:1019D000000001FFFFF000001FFFFFC0000000003B
:1019E000000003FFFFF800003FF8FFE000000000E8
:1019F000000007FF1FFC0000FFF07FF80000000060
:101A000000001FFE0FFF0001FFE03FFC0000000090
:101A100000003FFC07FF8003FFC01FFE0000000026
:101A200000007FF803FFC007FF0007FF0000000071
:101A30000000FFE000FFE01FFE0003FFC000000009
:101A40000003FFC0007FF81FFC0001FFC000000082
:101A50000003FF80003FF83FF000007FE00000003F
:101A60000007FE00000FFC3FE000003FE000000028
:101A70000007FC000007FC1FC000001FC0000000A2
:101A80000003F8000003F81F8000000FC0000000F2
:101A90000003F0000001F806000000030000000051
:101AA0000000C00000006000000000000000000016
:101AB0000000000000000000000000000000000026
:101AC00000000000000000560055534220000000B6
:101AD0000000000000000000000000000000000006
:101AE00000000000000000000000000000000000F6
:101AF00000000000000000000000000000000000E6
:101B000000000000000000000000000000000000D5
:101B100000000000000000000000000000000000C5
:101B200000000000000000000000000000000000B5
:101B300000000000000000000000000000000000A5
:101B40000000000000000000000000000000000095
:101B50000000000000000000000000000000000085
:101B60000000000000000000000000000000000075
:101B70000000000000000000000000000000000065
:101B80000000000000000000000000000000000055
:101B90000000007FFFFFFFFFF000000000000000DA
:101BA000000000FFFFFFFFFFF80000000000000042
:101BB000000000C0000000001E0000000000000047
:101BC000000000C0000000001F0000000000000036
:101BD000000000C000000000030000000000000042
:101BE000000000C000000000030000000000000032
:101BF000000000C000000000030000000000000022
:101C0000000000C000000000030000000000000011
:101C1000000000C000000000030000000000000001
:101C2000000000C0000000000300000000000000F1
:101C3000000000C0000000000300000000000000E1
:101C4000000000C0000000000300000000000000D1
:101C5000000000C0000000000300000000000000C1
:101C6000000000C0000000000300000000000000B1
:101C7000000000C0000000000300000000000000A1
:101C8000000000C000000000030000000000000091
:101C9000000000C0000000001F0000000000000065
:101CA000000000C0000000001E0000000000000056
:101CB000000000C00000000018000000000000004C
:101CC000000000FFFFFFFFFFF80000000000000021
:101CD0000000007FFFFFFFFFF00000000000000099
:101CE00000000000000000000000000000000000F4
:101CF00000000000000000000000000000000000E4
:101D000000000000000000000000000000000000D3
:101D100000000000000000000000000000000000C3
:101D200000000000000000000000000000000000B3
:101D300000000000000000000000000000000000A3
:101D40000000000000000000000000000000000093
:101D50000000006100000020000000000000000002
:101D600000000199000000200000000000000000B9
:101D70000000020900000000000000000000000058
:101D800000000401F1FB9F27C7C000000000000015
:101D9000000004019A1A21244840000000000000BD
:101DA000000004010A0A212448400000000000004D
:101DB000000004010A0A212448400000000000003D
:101DC000000002090B1A2124484000000000000016
:101DD0000000019909FA1F2447C00000000000001C
:101DE000000000E0000001000040000000000000D2
:101DF00000000000000033000CC0000000000000E4
:101E00000000000000000C000300000000000000C3
:101E100000000000000000000000000000000000C2
:101E200000000000000000000000000000000000B2
:101E300000000000000000000000000000000000A2
:101E40000000000000000000000000000000000092
:101E50000000000000000000000000000000000082
:101E60000000000000000000000000000000000072
:101E70000000000000000000000000000000000062
:101E80000000000000000000000000000000000052
:101E90000000000000000000000000000000000042
:101EA0000000000000000000000000000000000032
:101EB0000000000000000000000000000000000022
:101EC00000000000000000000000000000004E6F55
:101ED0007620323520323031392031363A32303ABC
:101EE000353520417264207665722E3130383130BC
:101EF0002E005A756D692076657273696F6E2000C9
:101F000000000000240027002A0000000008000252
:101F100001000003040700000000000000000102AF
:101F20000408102040800102040810200102040867
:101F3000102000000000250028002B0004040404E9
:101F40000404040402020202020203030303030363
:101F5000022200FF21009529733311241FBECFEF09
:101F6000D8E0DEBFCDBF11E0A0E0B1E0E2EEF0E7E7
:101F700002C005900D92A63AB107D9F723E0A6EA70
:101F8000B1E001C01D92A238B207E1F71FE0CCEA30
:101F9000DFE004C02197FE010E941E37CB3AD10733
:101FA000C9F70E94172A0C9464380C940000089515
:101FB000E0915002F0915102309729F01092940272
:101FC0001092930209940895CF93DF93AC01E091AE
:101FD0004E02F0914F023097F1F090918102809182
:101FE00080029817C0F090E0292F30E026173707BD
:101FF00054F4D901A953BE4F240F351FE90128819C
:102000002C939F5FF1CF1092810260938002CB01ED
:10201000DF91CF910994DF91CF91089590E0FC0179
:10202000E65FF04E2491FC01E25EF04E3491FC013B
:10203000E45CF04EE491EE23C9F0222339F0233022
:1020400001F1A8F4213019F1223029F1F0E0EE0F6E
:10205000FF1FEE5CF04EA591B4918FB7F894EC9110
:10206000611126C030953E233C938FBF08952730E1
:10207000A9F02830C9F0243049F7809180008F7D85
:1020800003C0809180008F7780938000DFCF84B57C
:102090008F7784BDDBCF84B58F7DFBCF8091B0007F
:1020A0008F778093B000D2CF8091B0008F7DF9CF31
:1020B0003E2BDACF1092810210928002109294028D
:1020C0001092930210927F0281E080937E02109220
:1020D0007D0261E082E10E940E1061E083E10E94D6
:1020E0000E10E9EBF0E080818E7F808380818D7F10
:1020F000808388E48093B80085E48093BC0088EDF9
:102100009FE090937C0280937B0284EE9FE090930B
:102110007A02809379020895CF93DF9390E0FC01D7
:10212000E25EF04E2491845C904EFC018491882301
:10213000D1F090E0880F991FFC01E050F14EA5917D
:10214000B491FC01EE5CF04EC591D49161110EC0CA
:102150009FB7F8948C91E22FE0958E238C93288181
:10216000E223E8839FBFDF91CF9108958FB7F89462
:10217000EC91E22BEC938FBFF6CF4F925F926F9270
:102180007F928F929F92AF92BF92CF92DF92EF9207
:10219000FF920F931F93CF93DF9300D000D01F9235
:1021A000CDB7DEB78C012A013B01809104018E304E
:1021B000C9F08F3F09F47FC00F900F900F900F90E0
:1021C0000F90DF91CF911F910F91FF90EF90DF90D3
:1021D000CF90BF90AF909F908F907F906F905F90C7
:1021E0004F900895E0E5FFE184918D8387FDE4CF72
:1021F00061E08EE00E948C108D81882321F09D810A
:10220000923009F05CC14801B12CA12C60E072E170
:102210008AE790E0A50198010E94E03629833A837D
:102220004B835C8369017A0181E0C81AD108E10817
:10223000F1089FEFC916D104E104F10409F00CF490
:1022400013C160E472E48FE090E0A50198010E9460
:10225000E03669017A0181E0C81AD108E108F10885
:102260009D81923009F098C08FEFC816D104E10427
:10227000F10409F00CF4DDC160E970ED83E090E059
:10228000A50198010E94E03669017A0191E0C91A1E
:10229000D108E108F1088FEFC816D104E104F10478
:1022A00011F00CF0A3C183E09091B100987F892BCD
:1022B0008093B100E1C08EE080930401E0E5FFE18E
:1022C00094919D839F3F09F477CF913029F158F085
:1022D000923009F43FC08D8187FD6ECF61E08EE0C2
:1022E0000E948C108CCF14BC15BC84B5826084BD58
:1022F00085B5816085BDEAE4FFE1E491F0E0EE0F91
:10230000FF1FEE5CF04E85919491ECE2FFE1E491C9
:10231000E09386021D826CCF1092800010928100A3
:10232000809181008860809381008091810081602C
:1023300080938100EAE4FFE1E491F0E0EE0FFF1FFB
:10234000EE5CF04E85919491ECE2FFE1E491E09334
:1023500085024ECF1092B0001092B1008091B00073
:1023600082608093B0008091B10081608093B10061
:10237000EAE4FFE1E491F0E0EE0FFF1FEE5CF04EC7
:10238000859194919093840280938302ECE2FFE123
:10239000E491E09382022CCF9FEFC916D104E104AF
:1023A000F10409F00CF489C068E478EE81E090E073
:1023B000A50198010E94E03669017A0181E0C81AFE
:1023C000D108E108F1089D81992309F428C19FEF04
:1023D000C916D104E104F10409F00CF41EC162E154
:1023E0007AE780E090E0A50194010E94E03669015F
:1023F0007A0181E0C81AD108E108F1089D8199238A
:1024000009F4EBC08FEFC816D104E104F10411F018
:1024100008F0BFC086E048CF64E274EF80E090E04F
:10242000A50194010E94E03669017A0181E0C81A91
:10243000D108E108F10885E09FEFC916D104E10455
:10244000F10409F008F430CF62E17AE780E090E02F
:10245000A50194010E94E03669017A0191E0C91A50
:10246000D108E108F108CECF81E09D8191111CCF08
:1024700095B5987F892B85BD2FEF3FEFA9014114BA
:1024800051046104710409F043C09D81913009F445
:102490005EC0923009F46DC091118ECEC7BC2093FE
:1024A0008F02309390024093910250939202809158
:1024B0006E00826080936E007FCE82E0D6CFB12C1A
:1024C000A12C60E072E18AE790E0A50198010E94EA
:1024D000E03669017A0181E0C81AD108E108F10803
:1024E000C114D10491E0E906F10404F591E08D8175
:1024F000813011F680918100887F892B8093810043
:102500002FEF3FEFA9014114510461047104F9F068
:10251000D801AA0FBB1FA30192010E94FF3628EE2B
:1025200033E040E050E00E94BE36AFCF68E478EE82
:1025300081E090E0A50198010E94E03669017A01EE
:1025400081E0C81AD108E108F10893E0D0CFD09219
:102550008900C092880020938B0230938C024093B4
:102560008D0250938E0280916F00826080936F0085
:1025700023CEC092B3002093870230938802409309
:10258000890250938A02809170008260809370006B
:1025900013CEC980DA80EB80FC809AE0F594E79452
:1025A000D794C7949A95D1F791E0C91AD108E10858
:1025B000F10887E079CEC980DA80EB80FC808AE080
:1025C000F594E794D794C7948A95D1F791E0C91A06
:1025D000D108E108F10885E04BCF8FEFC816D10490
:1025E000E104F10409F038F784E042CF68E478EEC2
:1025F00081E090E0A50198010E94E03669017A012E
:1026000091E0C91AD108E108F1088FEFC816D1048A
:10261000E104F10411F00CF0FFCE84E045CE8FEF21
:10262000C816D104E104F10411F00CF0D8CE83E017
:102630001FCF82E039CE1F93CF93DF93182FEB018A
:1026400061E00E948C10209739F460E0812FDF91C7
:10265000CF911F910C940E10CF3FD10511F461E082
:10266000F5CFE12FF0E0E65FF04EE491E33031F199
:1026700040F4E130B1F0E230E1F0C038D1057CF750
:10268000E4CFE73029F1E83059F1E430B1F7809137
:102690008000806280938000D0938B00C0938A007A
:1026A00004C084B5806884BDC7BDDF91CF911F9100
:1026B000089584B5806284BDC8BDF7CF8091800045
:1026C000806880938000D0938900C0938800EDCF0C
:1026D0008091B00080688093B000C093B300E5CFD4
:1026E0008091B00080628093B000C093B400DDCFD1
:1026F0008E50806480937C0080917A008064809307
:102700007A0080917A0086FDFCCF809178009091CC
:10271000790008953FB7F894809175029091760200
:10272000A0917702B091780226B5A89B05C02F3FF3
:1027300019F00196A11DB11D3FBFBA2FA92F982FE7
:102740008827BC01CD01620F711D811D911D42E0E2
:10275000660F771F881F991F4A95D1F708958F92AA
:102760009F92AF92BF92CF92DF92EF92FF926B0156
:102770007C010E948A134B015C01C114D104E10465
:10278000F104B9F00E948A13681979098A099B0932
:10279000683E73408105910580F321E0C21AD1089B
:1027A000E108F10888EE880E83E0981EA11CB11C98
:1027B000E4CFFF90EF90DF90CF90BF90AF909F90CD
:1027C0008F9008952FB7F894609171027091720202
:1027D00080917302909174022FBF0895909104012B
:1027E00089130BC0E0E5FFE1E4919FEF90930401B2
:1027F000E13049F028F0E23061F060E00C940E1016
:1028000010926E00FACF90916F009D7F90936F00B1
:10281000F4CF909170009D7F9093700091E0909321
:10282000B0009091B100987F94609093B1001092A5
:10283000B300E3CFEF92FF920F931F93CF93DF93F9
:102840008C017B01D0E0C0E0F701EC0FFD1F64912B
:10285000662361F0D801ED91FC910190F081E02DAB
:10286000C8010995892B11F02196EECFCE01DF9199
:10287000CF911F910F91FF90EF900895AF92BF926B
:10288000CF92DF92EF92FF920F931F93CF93DF933C
:102890006C017B018B01040F151FEB015E01AE186B
:1028A000BF08C017D10759F06991D601ED91FC918D
:1028B0000190F081E02DC6010995892B79F7C501BA
:1028C000DF91CF911F910F91FF90EF90DF90CF900C
:1028D000BF90AF900895FC01538D448D252F30E0BB
:1028E000842F90E0821B930B541710F0CF9608951D
:1028F00001970895FC01918D828D981761F0A28D4A
:10290000AE0FBF2FB11D5D968C91928D9F5F9F730F
:10291000928F90E008958FEF9FEF0895FC01918DC5
:10292000828D981731F0828DE80FF11D858D90E032
:1029300008958FEF9FEF0895FC01918D228D892FCF
:1029400090E0805C9F4F821B91098F7399270895B7
:1029500087E992E00E949C1421E0892B09F420E091
:10296000822F089580E090E0892B29F00E94A8141E
:1029700081110C9400000895FC01A48DA80FB92FBB
:10298000B11DA35ABF4F2C91848D90E001968F7397
:102990009927848FA689B7892C93A089B1898C91B6
:1029A000837080648C93938D848D981306C0028805
:1029B000F389E02D80818F7D80830895EF92FF92CF
:1029C0000F931F93CF93DF93EC0181E0888F9B8D52
:1029D0008C8D98131AC0E889F989808185FF15C00C
:1029E0009FB7F894EE89FF896083E889F98980812F
:1029F0008370806480839FBF81E090E0DF91CF91FE
:102A00001F910F91FF90EF900895F62E0B8D10E01F
:102A10000F5F1F4F0F731127E02E8C8D8E110CC08E
:102A20000FB607FCFACFE889F989808185FFF5CFD9
:102A3000CE010E94BC14F1CFEB8DEC0FFD2FF11DE8
:102A4000E35AFF4FF0829FB7F8940B8FEA89FB8916
:102A500080818062CFCFCF93DF93EC01888D882374
:102A6000B9F0AA89BB89E889F9898C9185FD03C0F1
:102A7000808186FD0DC00FB607FCF7CF8C9185FFD6
:102A8000F2CF808185FFEDCFCE010E94BC14E9CF4B
:102A9000DF91CF9108950895FC016370658B848167
:102AA000958126813781613039F0633029F0918733
:102AB000808733872287089531872087938782878D
:102AC00008952F923F924F925F926F927F928F92D2
:102AD0009F92AF92BF92CF92DF92EF92FF920F93AD
:102AE0001F93CF93DF93CDB7DEB769970FB6F894F6
:102AF000DEBF0FBECDBF998F888F5B011A01D22E2A
:102B00001F830E833701C982DC0158962D913C91B9
:102B100059972115310509F004C118968D919C91A2
:102B20001997681779070CF0C0C11A968D919C917E
:102B30001B97481759070CF0B8C18C2C912CFB013E
:102B400026E0C29EE00DF11D1124F987E8871E16CC
:102B50001F060CF0AAC1A40193E0440F551F9A95DB
:102B6000E1F75D874C87CA01820D931D181619067F
:102B70000CF09BC157968C91811104C05FEA5D15E2
:102B800008F4D394A88DB98DED91FC91119702842E
:102B9000F385E02DCD010995F5013596F98BE88B8C
:102BA000BB82AA8225018BEB98E08A199B099C01C4
:102BB00045E0D49E200D311D11243B8B2A8BEA89E0
:102BC000FB89E40DF51D24913D822C82D12CC12C72
:102BD000622F70E07F876E87E88DF98DA081B181CB
:102BE00020FF7CC0F981F13009F069C01C96ED919D
:102BF000FC912E813F81A1014C0D5D1DB201888D9C
:102C0000998D0995EE85FF85F595E7952E2F4FEF68
:102C1000C41AD40A6C817D81680D791D7D836C8313
:102C200078E0C716D104A1F68FEF481A580AAA8196
:102C3000BB81A80DB91DBB83AA83E889F989E41576
:102C4000F50509F0BCCF2E813F8126153705A9F087
:102C5000A88DB98DED91FC91B981B13009F051C0C9
:102C6000B5016B5F7F4F0088F189E02D830128E07B
:102C700030E0A101888D998D0995A88DB98DED91D0
:102C8000FC9111970688F789E02DCD0169960FB662
:102C9000F894DEBF0FBECDBFDF91CF911F910F9192
:102CA000FF90EF90DF90CF90BF90AF909F908F906C
:102CB0007F906F905F904F903F902F9009941E9659
:102CC000ED91FC91EE80FF80840194014C815D8147
:102CD0006A817B81888D998D099594CF2E813F8162
:102CE0002615370509F48ECF3981313029F41C9629
:102CF000ED91FC9193017FCF1E96ED91FC917301B4
:102D0000E3CF68857985681979090684F785E02D10
:102D100073010C851D859401A101888D998D0995FC
:102D2000ACCFF90134969491329745915491D91AC8
:102D3000B7E0DB9E400D511D1124F901259134911E
:102D4000398B288BFA0145905490FA0132966490A1
:102D50003196C49032961491319604913981323073
:102D600008F48AC0E12E012E000CFF08402F002E2F
:102D7000000C550B59874887A88DB98DED91FC91B2
:102D800011970284F385E02DCD010995B9818B2E31
:102D9000912CE89CC001E99C900DF89C900D1124A9
:102DA000FC01EA0DFB1DFF87EE871C82D12C712CE4
:102DB0009B868A869101200F311D07FD3A953D8B38
:102DC0002C8BA501410F511D17FD5A955F8B4E8B22
:102DD0007C1408F052CF872D90E048855985480F24
:102DE000591F6A857B85469F9001479F300D569FEE
:102DF000300D1124D901A20DB31DBD87AC87EE851E
:102E0000FF85FB83EA83B12CA12C2C893D89280FF7
:102E1000391F3B8B2A8B8C818A0DA61408F040C089
:102E2000877041F4C2010196E889F989E40DF51D26
:102E3000D4902C01D7FE15C0A88DB98DED91FC91D1
:102E4000B981B130F1F40484F585E02D2E813F8104
:102E50004A895B896E897F896A0D7B1D888D998D72
:102E60000995DD0CEFEFAE1ABE0A2A813B81280DD1
:102E7000391D3B832A83CFCF19861886F12CE12C8C
:102E80007BCF0684F785E02DEE80FF8084019401DE
:102E90004C855D856A817B81888D998D0995E1CF0F
:102EA0003C81360D3C83739493CF69960FB6F894AA
:102EB000DEBF0FBECDBFDF91CF911F910F91FF906D
:102EC000EF90DF90CF90BF90AF909F908F907F90CA
:102ED0006F905F904F903F902F900895AF92BF9268
:102EE000CF92EF92FF920F931F93CF93DF93EC015A
:102EF000262F888D998D009709F04FC06A30C9F44C
:102F00001D861C868C8998E0899F900111248E85EE
:102F10009F85820F931F9F878E8781E090E0DF91CE
:102F2000CF911F910F91FF90EF90CF90BF90AF90F6
:102F300008956D3091F3CC888E898823C1F08C85FB
:102F40009D85E6E0CE9E800D911D11244885598512
:102F50004817590764F44E855F851D861C86F8E086
:102F6000CF9EC0011124840F951F9F878E87EA880A
:102F7000FB88088919894E855F856C857D85CE0122
:102F80000E9461152C898C859D8536E0239F800DDC
:102F9000911D11249D878C87C0CF6A3069F41D86EE
:102FA0001C86FC013696E4912C898E859F85E29FD4
:102FB000800D911D1124AFCF6D3009F4AECFFC010F
:102FC00034963491631708F4A8CF3196E491E6174C
:102FD00008F4A3CFFC01329645915491E62FE31BF0
:102FE000FF0B37E03E9F50013F9FB00C1124A40E11
:102FF000B51EF501329634913196E4913323A1F157
:10300000EE2391F1CC88F5013596E4914E89442365
:1030100001F10E2E000CFF0BE30FF11DCE9EA0015F
:10302000CF9E500D11246C857D85460F571F6885F6
:103030007985641775076CF44E855F851D861C863F
:103040000696FC018491C89E400D511D11245F8796
:103050004E87EA88FB88088919894E855F856C85CB
:103060007D85CE010E946115F5013496E4912C898D
:103070008C859D85E29F800D911D11248BCF6F92D1
:103080007F928F929F92AF92BF92CF92DF92EF92F8
:10309000FF920F931F93CF93DF93EC016B015A01C3
:1030A00039014801E881F9810284F385E02D099511
:1030B000E881F9810288F389E02D87019301A50158
:1030C000B601CE010995A501480D591D4150510980
:1030D000E881F9810288F389E02D9301B601CE01E0
:1030E0000995E881F9810088F189E02D9401A50115
:1030F000B601CE010995C60CD71CB6016150710905
:10310000E881F9810088F189E02D9401A501CE01C3
:103110000995E881F9810688F789E02DCE01DF91D4
:10312000CF911F910F91FF90EF90DF90CF90BF90C4
:10313000AF909F908F907F906F9009946F927F9245
:103140008F929F92AF92BF92CF92DF92EF92FF92B7
:103150000F931F93CF93DF935C01EB016A01490149
:1031600038018701DC01ED91FC916217730719F5B5
:10317000641675062CF0962D872D3A01C92ED82E8F
:103180009601261937092F5F3F4F048CF58DE02DEE
:10319000A301BE01C5010995DF91CF911F910F9148
:1031A000FF90EF90DF90CF90BF90AF909F908F9067
:1031B0007F906F9008954615570591F426173707AD
:1031C00024F0892D4B01C22FD82F9E0128193909CF
:1031D0002F5F3F4F068CF78DE02DA601B401DACFAB
:1031E0000284F385E02D0995D501ED91FC910488C9
:1031F000F589E02D83019401A601BE01C501099561
:10320000D501ED91FC910688F789E02DC501DF918C
:10321000CF911F910F91FF90EF90DF90CF90BF90D3
:10322000AF909F908F907F906F900994EF92FF9254
:103230000F931F93DC011A960D911C911B97189602
:103240002D913C911997ED91FC9100A0F1A1E02DF9
:103250007B0150E040E070E060E009951F910F9124
:10326000FF90EF9008954F925F926F927F928F92AE
:103270009F92AF92BF92CF92DF92EF92FF920F9305
:103280001F93CF93DF936C012B015A013901480141
:10329000DC01ED91FC910284F385E02D0995E201BA
:1032A000640C751CD601ED91FC91C615D7055CF434
:1032B0000088F189E02D87019401A501BE01C601B6
:1032C00009952196EFCF0688F789E02DC601DF9199
:1032D000CF911F910F91FF90EF90DF90CF90BF9013
:1032E000AF909F908F907F906F905F904F900994D8
:1032F0008F929F92AF92BF92CF92DF92EF92FF9206
:103300000F931F93CF93DF93EC015B014A01690197
:10331000E881F9810284F385E02D099595012C0D52
:103320003D1D21503109E881F9810488F589E02D9E
:1033300078018401A401B501CE010995E881F981E4
:103340000688F789E02DCE01DF91CF911F910F9173
:10335000FF90EF90DF90CF90BF90AF909F908F90B5
:1033600009948F929F92AF92BF92CF92DF92EF9289
:10337000FF920F931F93CF93DF93EC015B014A0100
:1033800069017801E881F9810284F385E02D0995CE
:10339000C80CD91C860101501109E881F981048803
:1033A000F589E02D9501A401B501CE010995E881CB
:1033B000F9810688F789E02DCE01DF91CF911F9129
:1033C0000F91FF90EF90DF90CF90BF90AF909F90C4
:1033D0008F900994EF92FF920F931F93DC01ED9170
:1033E000FC9100A0F1A1E02D09951F910F91FF9094
:1033F000EF9008950F931F93DC01ED91FC91068CE3
:10340000F78DE02D09951F910F9108950F931F934C
:10341000DC01ED91FC91048CF58DE02D09951F9157
:103420000F910895DC01ED91FC910084F185E02D70
:1034300009943F924F925F926F927F928F929F92E8
:10344000AF92BF92CF92DF92EF92FF920F931F93B2
:10345000CF93DF9300D000D0CDB7DEB75C013B0146
:103460006A014901280187E0480E511C93E05594F8
:1034700047949A95E1F7CA018E0D9F1D9A8389831F
:10348000F12CE12C312C1C821B828B819C8187705A
:103490009927330C892B61F4EB81FC8183E0F5954E
:1034A000E7958A95E1F7EE0DFF1DE80DF91D3490C3
:1034B00037FE0AC021E030E0A6016B817C81660DF9
:1034C000771DC5010E94121A8B819C8101969C83F5
:1034D0008B8308171907C9F69FEFC91AD90AE40C9C
:1034E000F51C89819A81C816D90669F60F900F904C
:1034F0000F900F90DF91CF911F910F91FF90EF9060
:10350000DF90CF90BF90AF909F908F907F906F9003
:103510005F904F903F9008952F923F924F925F920D
:103520006F927F928F929F92AF92BF92CF92DF92D3
:10353000EF92FF920F931F93CF93DF9300D000D0B1
:1035400000D0CDB7DEB73C016A013E832D83FC82FB
:10355000EB825801A41AB50AB7FE03C0B194A19436
:10356000B1088D809E80861A970A97FE03C09194B9
:10357000819491088A149B045CF0902F812F0D8117
:103580001E819D838E839C2D8D2D6B01692F782F3D
:103590000C151D055CF09D818E817E836D83692FE6
:1035A000782F902F812F8601C92ED82E1601201A30
:1035B000310A2B012D813E81421A530A57FE03C066
:1035C000519441945108710137FE03C03FEFE31A53
:1035D000F30AF594E7948D819E81861797075CF531
:1035E000A1E0B0E0BA83A983C016D1064CF1D301A3
:1035F000ED91FC910484F585E02D2B813C81A8019F
:103600006D817E818A149B041CF04D815E81B8011E
:10361000C3010995E418F508F7FE0AC02D813E8123
:1036200089819A81280F391F3E832D83E20CF31C78
:103630000F5F1F4FD9CF2FEF3FEF3A832983D4CFAE
:1036400026960FB6F894DEBF0FBECDBFDF91CF91A7
:103650001F910F91FF90EF90DF90CF90BF90AF90B0
:103660009F908F907F906F905F904F903F902F90A2
:103670000895EF92FF920F931F93CF93DF93EC0186
:10368000EC80FD806E157F050CF070C057FF04C004
:10369000240F351F50E040E08E819F81FA01E20F38
:1036A000F31F8E179F071CF49C01241B350B121669
:1036B00013060CF05BC0922F842F86958695869515
:1036C0008E9DD0018F9DB00D11246A0F7B1FAE8D92
:1036D000BF8DA60FB71F477049F188E0841B482FA4
:1036E000682F70E0FB01ED54F74FE491281708F0C4
:1036F00063C0621B71092FEF30E002C0359527953A
:103700006A95E2F7E2230130110539F0B0F1023099
:10371000110561F58C91E82702C08C91E82BEC93A0
:10372000941720F12C813D81A20FB31FE92FE41BD8
:10373000E83078F00230110521F58E2F9C9190959C
:103740009C932C813D81A20FB31F88508830B0F725
:10375000E770EE2359F0F0E0E555F74FE4910130C2
:103760001105F9F010F10230110519F1DF91CF9137
:103770001F910F91FF90EF900895E0958C91E823B1
:10378000CECF81E00115110509F480E081959E2FCF
:103790008C932C813D81A20FB31F98509830C0F7B5
:1037A000D7CF8C91E82BEC93E1CFE0958C91E82377
:1037B000FACF8C91E827F7CF0130110509F4ADCF8E
:1037C000E0F20230110509F4A5CFAE0DBF1DAECF5A
:1037D0000F931F93CF93DF9377FF04C0260F371FFC
:1037E00070E060E0DC011496CD91DC91FB01E20F0A
:1037F000F31FCE17DF071CF49E01261B370B121692
:1038000013064CF5FA0157FD3796A3E0F595E795B9
:10381000AA95E1F7EC9FD001ED9FB00DFC9FB00D94
:1038200011246A0F7B1FDC015E96ED91FC91E60F7F
:10383000F71F4770552781E090E001C0880F4A9537
:10384000EAF7482F0130110559F0A8F02E0F3F1F5D
:1038500002301105E1F0DF91CF911F910F91089592
:103860002E0F3F1FE217F307B1F38191DF0111978C
:10387000842B8C93F7CF80952E0F3F1FE217F30711
:1038800051F39191DF01119798239C93F7CFE217A1
:10389000F30709F38191DF01119784278C93F7CF08
:1038A0000F931F93FA01DC0155964C9155974230C6
:1038B000E9F04330A1F1413061F514964D915C91EE
:1038C000DA01AE1BBF0BFD01E21BF30B77FD0BC052
:1038D000DC0116964D915C916417750724F4AB01D9
:1038E000BF010E94E81B1F910F91089514964D91FE
:1038F0005C91DA01A61BB70BBD0161507109DC01B7
:1039000016964D915C91DA01AE1BBF0BFD01E21BD7
:10391000F30B77FDE8CFAF010E94391BE4CF169679
:103920004D915C91DA01A61BB70BBD016150710985
:10393000CDCF0F931F93FA01DC0155964C9155970B
:103940004230A9F0433091F1413019F514964D9170
:103950005C91DA01AE1BBF0BFD013197F7FD04C08E
:10396000AB01BF010E94391B1F910F91089514965E
:103970004D915C91DA01A61BB70BBD01DC011696D7
:103980004D915C91DA01AE1BBF0BFD013197621BBB
:10399000730BF7FDE9CFDC0116964D915C91E417AE
:1039A000F50714F7AF010E94E81BDECF16964D9184
:1039B0005C91DA01A61BB70BBD01621B730BCECF66
:1039C000FC0177FD64C080859185681779070CF04C
:1039D0005EC057FD5CC082859385481759070CF07F
:1039E00056C085898230B1F0833029F1813041F4AD
:1039F00084819581841B950BAB01BC0161507109D9
:103A00002130310509F108F443C02230310509F4B1
:103A100063C0089584819581DC01A61BB70BBD01AD
:103A20006150710986819781DC01A41BB50BAD0142
:103A300041505109E5CF86819781861B970BBA01CA
:103A4000AC0141505109DCCFCA0157FD0796A3E0F4
:103A500095958795AA95E1F7A481B5818A9F9001F4
:103A60008B9F300D9A9F300D1124620F731F068CAF
:103A7000F78DE02DE60FF71F4770552721E030E066
:103A800001C0220F4A95EAF78081822B8083089536
:103A9000CA0157FD079633E0959587953A95E1F76A
:103AA000A481B5818A9F90018B9F300D9A9F300D24
:103AB0001124620F731F068CF78DE02DE60FF71FA0
:103AC0004770552781E090E001C0880F4A95EAF7DA
:103AD000809590818923DACFCA0157FD079623E0AC
:103AE000959587952A95E1F7A481B5818A9F9001E4
:103AF0008B9F300D9A9F300D1124620F731F068C1F
:103B0000F78DE02DE60FF71F4770552721E030E0D5
:103B100001C0220F4A95EAF780818227B7CF089526
:103B20008EBD00000DB407FEFDCF8EB508958CBD8F
:103B30009DBD0895089585ED8093BC008091BC00E3
:103B400084FDFCCF10927F02089520910702260F7A
:103B50003327331F21323105ECF420917F02FC0121
:103B600090E080E0243069F082E00895A09107029F
:103B70002191AC0149515E4FA40FB52FB11D2C937B
:103B80000196861798F380910702680F60930702E9
:103B900080E0089581E00895E091810280918002A3
:103BA000E81730F4F0E0E953FE4F808190E008958B
:103BB0008FEF9FEF089590918102809180022FEF07
:103BC0003FEF981748F4E92FF0E0E953FE4F2081CA
:103BD00030E09F5F90938102C90108958091800237
:103BE00090918102891B990B0895CF92DF92EF92F9
:103BF000FF920F931F93CF93DF937C01CB018A0138
:103C000020919602222389F0EB016B01C40ED51E90
:103C1000CC15DD0569F06991D701ED91FC9101901A
:103C2000F081E02DC7010995F3CF642F0E94A51DF7
:103C3000C801DF91CF911F910F91FF90EF90DF901E
:103C4000CF9008954AE050E06EE572E084E393E09F
:103C50000C94F51DCF93DF931F92CDB7DEB7698328
:103C6000209196022223F9F020919302203258F0FD
:103C700021E030E0FC013383228390E080E00F906C
:103C8000DF91CF91089580919402E82FF0E0E955FB
:103C9000FE4F998190838F5F80939402809393026B
:103CA00081E090E0ECCF61E0CE0101960E94A51D7D
:103CB000F7CF2091930281E0213208F044C0809137
:103CC0007F028111FCCF8091950292E090937F0258
:103CD00091E090937E029FEF90932A0210924C0203
:103CE00020934B02A7EAB1E0EBE2F2E090E0291367
:103CF00031C010924D0290914D02880F892B809314
:103D00004D0280917D02813049F510927D028091B3
:103D10004D028093BB008091BC0083FDF8CF85EC01
:103D20008093BC0080917F028230E1F380912A026F
:103D30008F3FB1F080912A028032A1F080912A0257
:103D4000803391F084E010929402109293021092CA
:103D5000960208953D9131939F5FC9CF85EEE0CFE4
:103D600080E0F1CF82E0EFCF83E0EDCFFF920F93C1
:103D70001F93CF93DF93F82ED92FC62F80915C032A
:103D800090915D03009709F452C02091600331E0E7
:103D9000309396022093950210929402109293020F
:103DA000DC01ED91FC910190F081E02D60E009953E
:103DB0000F2D1D2FD1E0FF24F394C15080915C039F
:103DC00090915D03CF3F61F1D032C8F00E94591E3F
:103DD00080915C0390915D0320916003F0929602C4
:103DE000209395021092940210929302DC01ED91BF
:103DF000FC910190F081E02D60E00995D1E0809187
:103E00005C0390915D03F8016491DC01ED91FC91FC
:103E10000190F081E02D0995DF5F0F5F1F4FCDCF3F
:103E2000DF91CF911F910F91FF900C94591EE0915B
:103E30006C03F0916D0390818091720380958923CA
:103E400080830F2D1D2FC15008F438C0F8018491D4
:103E500020915A0330915B03232B29F00E94901D7F
:103E60000F5F1F4FF0CF28E030E040E8E09168039B
:103E7000F091690390917003582F5423D9F0508129
:103E8000952B9083E0916A03F0916B0390815091A0
:103E90007103952B9083E0916A03F0916B0350813D
:103EA0009091710390959523908346952150310907
:103EB000E9F6D6CF508190959523E3CFDF91CF914E
:103EC0001F910F91FF9008951F93CF93DF93EC0103
:103ED0008C8D9D8D009721F1162F28A131E0309314
:103EE0009602209395021092940210929302DC01A4
:103EF000ED91FC910190F081E02D60E009958C8DB1
:103F00009D8DDC01ED91FC910190F081E02D612F00
:103F100009958C8D9D8DDF91CF911F910C94591E29
:103F2000ACA5BDA59C918AA9809589238C938A8D87
:103F30009B8D892B31F0862FDF91CF911F910C94AF
:103F4000901D28E030E080E8A8A5B9A598A9462FE3
:103F50004823C1F04C91942B9C93AAA5BBA59C919E
:103F600049A9942B9C93AAA5BBA54C9199A990957E
:103F700094239C9386952150310931F7DF91CF919D
:103F80001F9108954C9190959423E6CFEF92FF9264
:103F90000F931F93CF93DF9380915C0390915D0308
:103FA000892B09F493C020917603309177034091D7
:103FB00078035091790360E074E284EF90E00E940E
:103FC000BE3620513109410951095695479537951B
:103FD00027952093B80065E081E59FE10E94B61E19
:103FE00060914403615080E493E00E94641F20913B
:103FF000460330914703C901079697FD079623E0D2
:10400000959587952A95E1F72091440330914503D2
:10401000829F8001839F100D929F100D1124C091EB
:104020005E03D0915F0380915C0390915D030C0F60
:104030001D1F009709F489C02091600331E030937F
:104040009602209395021092940210929302DC0142
:10405000ED91FC910190F081E02D60E40995FF2441
:10406000F394EE24E39480915C0390915D030C172C
:104070001D0709F442C0BFE1BF15D0F40E94591ECC
:1040800080915C0390915D0320916003E092960221
:10409000209395021092940210929302DC01ED910C
:1040A000FC910190F081E02D60E40995FF24F394E8
:1040B00080915C0390915D036991DC01ED91FC912D
:1040C0000190F081E02D0995F394CDCF80915A03B2
:1040D00090915B03892B31F080917403909175036B
:1040E0000E94971DE0916E03F0916F039081809183
:1040F00073038095892380836ECF0E94591E80911F
:104100005C0390915D03892B09F460C020917A03D0
:1041100030917B0340917C0350917D0360E074E219
:1041200084EF90E00E94BE362051310941095109C7
:1041300056954795379527952093B800DF91CF91F5
:104140001F910F91FF90EF900895E0916C03F09113
:104150006D03808190917203892B80830C171D075A
:1041600071F2899120915A0330915B03232B19F04E
:104170000E94901DF3CF28E030E040E8E091680312
:10418000F091690390917003582F5423D9F0508116
:10419000952B9083E0916A03F0916B03908150918D
:1041A0007103952B9083E0916A03F0916B0350812A
:1041B00090917103909595239083469521503109F4
:1041C000E9F6CCCF508190959523E3CFE0916E0333
:1041D000F0916F03808190917303892B8083AECF20
:1041E0001F93CF93DF93EC01162F8C8D9D8D892B20
:1041F000B1F12EA93FA948AD59AD60E074E284EF5A
:1042000090E00E94BE36205131094109510956956E
:104210004795379527952093B80066EA111167EA0C
:10422000CE010E94641F8C8D9D8D892B41F12AAD9A
:104230003BAD4CAD5DAD60E074E284EF90E00E9478
:10424000BE36205131094109510956954795379598
:1042500027952093B800DF91CF911F9108958A8D03
:104260009B8D892B21F08CA99DA90E94971DEEA5FD
:10427000FFA590818BA9809589238083CECFEEA561
:10428000FFA580819BA9892B8083E5CF90E080E00A
:1042900008958F929F92AF92BF92CF92DF92EF924A
:1042A000FF920F931F93CF93DF9320915702211119
:1042B0002FC0942E862E8C01EB0188EEA82E83E071
:1042C000B82E699170E0C5010E94AA366B01770F84
:1042D000EE08FF08B701A601F801819191918F01C5
:1042E0000E94BD10C701B6010E94D83426E636E60A
:1042F00046EA5FE30E942A360E94A034072E000C93
:10430000880B990B0E94AF138C2F88198915C8F25E
:10431000DF91CF911F910F91FF90EF90DF90CF90A1
:10432000BF90AF909F908F900895CF93DF93CDB7BC
:10433000DEB729970FB6F894DEBF0FBECDBF86E07B
:10434000EBE0F1E0DE01119601900D928A95E1F724
:104350008091110190911201A09113018F83988790
:10436000A98743E0BE01695F7F4FCE0101960E949D
:10437000492129960FB6F894DEBF0FBECDBFDF915D
:10438000CF910895CF93DF93CDB7DEB765970FB682
:10439000F894DEBF0FBECDBF8EE0E4E1F1E0DE01B8
:1043A000119601900D928A95E1F787E0E2E2F1E043
:1043B000DE011F9601900D928A95E1F747E0BE015C
:1043C000615F7F4FCE0101960E94492165960FB62D
:1043D000F894DEBF0FBECDBFDF91CF9108950F934C
:1043E0001F93CF93DF938C01EB0197FF2AC01195A8
:1043F0000195110982E077FD07C070E060E085E07B
:104400000E941B13B80126C0D195C195D1098160C6
:10441000833081F0B80185E00E941B1370E060E0FA
:1044200086E00E941B1370E060E08AE00E941B138C
:10443000BE0119C070E060E085E00E941B13B80166
:10444000EFCF80E077FDE0CFB80185E00E941B133D
:1044500070E060E086E00E941B13BE018AE00E94CB
:104460001B1370E060E089E0DF91CF911F910F9105
:104470000C941B13CF93DF93909180028091810263
:10448000981709F48CC084E393E00E94DB1D9C0123
:10449000A90166E0559547956A95E1F74370552760
:1044A0004230510509F47EC04330510509F485C0FE
:1044B0004130510509F45EC0822F887390E033E0EB
:1044C000959587953A95E1F78230910561F01CF05A
:1044D000039709F064C070E060E090E080E0DF9155
:1044E000CF910C94EF2120FD5AC084E393E00E9409
:1044F000DB1DEC018038910544F06FE770E00E940D
:10450000AA36CC27DD27C81BD90B42E34C9FC0013C
:104510004D9F900D1124BE01D7FF04C06627772759
:104520006C1B7D0B0E94AA36C60FD71F84E393E055
:104530000E94DB1D9C018038910544F06FE770E01C
:104540000E94AA3622273327281B390B42E3429FB9
:10455000C001439F900D1124B90137FF04C06627A5
:104560007727621B730B0E94AA36CB01BE01820F14
:10457000931FB5CF2F73332730930201209301018E
:1045800084E393E00E94DB1D2AE0AC01249FC0017C
:10459000259F900D11249093590280935802DF912A
:1045A000CF9108958038D9F71092530284E393E0B5
:1045B0000E94DB1D80935A02F2CF803C31F41092AE
:1045C000030181E080935502EACF61E0813C19F05C
:1045D000823C31F460E08DE0DF91CF910C940E10BD
:1045E000833C19F410925702DACF843C21F481E025
:1045F00080935702D4CF853C21F481E0809353020D
:10460000CECF863C19F410925302C9CF873C31F4C7
:1046100081E08093530261E08CE0DECF883C29F496
:1046200081E08093530260E0F7CF893C31F481E070
:104630008093530261E08BE0CFCF8A3C29F481E084
:104640008093530260E0F7CF8B3C31F481E080939C
:10465000530261E087E0C0CF8C3C29F481E0809375
:10466000530260E0F7CF8D3C31F481E08093530238
:1046700061E088E0B1CF8E3C29F481E08093530261
:1046800060E0F7CF8F3C21F481E08093000187CF79
:10469000803D19F41092000182CF813D21F481E028
:1046A00080935C027CCF823D09F079CF10925C024E
:1046B00076CFCF93DF93C62F843009F441C080F5C5
:1046C0008230C1F161E08330B1F161E08FE00E949E
:1046D0000E1060E080E10E940E1060E081E10E9417
:1046E0000E1061E0C11101C060E083E00E940E1075
:1046F0008BE99FE00197F1F785E10E947813D82FAD
:10470000C92F60E083E00E940E108D2F9C2F97FD33
:1047100003969595879595958795DF91CF91089507
:104720008530C1F0863089F660E08FE00E940E107F
:1047300061E00BC060E08FE00E940E1061E0CACF24
:1047400060E08FE00E940E1060E080E10E940E1099
:1047500061E0C4CF61E0F5CFCF92DF92EF92FF929C
:1047600084E10E947813BC01990F880B990B0E9479
:10477000D8346B017C0160916C0270916D02809164
:104780006E0290916F020E94D8342FE632E143E826
:104790005AE30E942A369B01AC0160E070EC8FE77F
:1047A00094E40E94F4339B01AC01C701B6010E945E
:1047B000F433FF90EF90DF90CF9008958EE48093D4
:1047C0007C0062E070E080E090E00E94AF13809196
:1047D0007A00806480937A0080917A0086FDFCCF15
:1047E000809178002091790030E0322F2227032E2B
:1047F000000C440B550B282B60E070E381E190E046
:104800000E94E036CA01B901089520914603309113
:104810004703C901079697FD079623E0959587956D
:104820002A95E1F72091440330914503829FA0012E
:10483000839F500D929F500D112470E060E0809195
:104840005E0390915F030C945D38EF92FF920F939B
:104850001F93CF93C091A601C53688F40E94E2133E
:104860006E3A704681059105B0F50E94E2132AEF79
:1048700030E040E050E00E94BE362093A6018091D7
:10488000A601833680F50E94052480E4E82EF12CF1
:1048900000E810E029E930E050E040E070E060E03E
:1048A00080E493E00E94191A2091A60130E0EE24E2
:1048B000E394F12C03E010E04EE150E06EE070E094
:1048C00080E493E00E943319CF911F910F91FF90E4
:1048D000EF900C94C61F80910301882381F2C55F7D
:1048E000C093A601CCCF8336C9F080910301882301
:1048F000A9F00E9405240E94C61F10920301109285
:10490000A60160E082E00E940E1061E08DE0CF9190
:104910001F910F91FF90EF900C940E10CF911F916B
:104920000F91FF90EF9008950E945838FB0101907D
:104930000020E9F73197AF01461B570BDC01ED91E1
:10494000FC910280F381E02D0994CF93DF93BC01A9
:1049500087E992E00E941A14EC0167E971E087E9A7
:1049600092E00E9496248C0F9D1FDF91CF910895B5
:104970008F929F92AF92BF92EF92FF920F931F93ED
:10498000CF93DF93CDB7DEB7A1970FB6F894DEBF14
:104990000FBECDBF7C01FA01CB0119A2223008F471
:1049A0002AE08E010F5D1F4F822E912CB12CA12C7D
:1049B000BF01A50194010E94BE36F901CA016A3007
:1049C0000CF5605DD8016E938D01232B242B252BD4
:1049D00079F790E080E0109721F0BD01C7010E94B7
:1049E0009624A1960FB6F894DEBF0FBECDBFDF911F
:1049F000CF911F910F91FF90EF90BF90AF909F903C
:104A00008F900895695CDECF4F925F926F927F9294
:104A10008F929F92AF92BF92EF92FF921F93CF938C
:104A2000DF937C014A015B01722E20E030E0A90196
:104A3000CB01B4010E94EF33D0E0C0E087FF0EC08D
:104A4000D701ED91FC910190F081E02D6DE2C7015D
:104A50000995EC01B7FAB094B7F8B09410E060E0B3
:104A600070E080E09FE3171541F020E030E040E285
:104A700051E40E94F4331F5FF6CFA50194010E9418
:104A800083334B015C010E94A7342B013C012AE0D7
:104A9000BC01A201C7010E94B824C80FD91F11236D
:104AA000E9F1C301B2010E94D6349B01AC01C501FA
:104AB000B4010E9482334B015C01D701ED91FC915E
:104AC0000190F081E02D6EE2C7010995C80FD91F52
:104AD000115020F120E030E040E251E4C501B40182
:104AE0000E942A362B013C010E94A7344B01B12CB5
:104AF000A12C2AE0B501A401C7010E94B824C80F67
:104B0000D91FC501B4010E94D6349B01AC01C30179
:104B1000B2010E9482334B015C01DACFCE01DF91FA
:104B2000CF911F91FF90EF90BF90AF909F908F908B
:104B30007F906F905F904F900895CF92DF92EF92A9
:104B4000FF920F931F93CF93C0906802D090690299
:104B5000E0906A02F0906B022DEC3CEC4CE550E4E6
:104B6000C701B6010E94AF35C0E01816D4F42DEC91
:104B70003CEC4CE550E4C701B6010E94823324EDC1
:104B800033EA40E35FE30E94F43320E030E048EC96
:104B900052E40E942A360E94A734C62F653608F0D8
:104BA000C4E680E4E82EF12C00E810E02BE934E0C4
:104BB00050E040E070E060E080E493E00E94191A69
:104BC00081E08093540387E390E090934D038093BA
:104BD0004C0310924F0310924E034C2F50E070E0A4
:104BE00060E02AE080E493E00E94B82469E974E080
:104BF00080E493E00E941A1487E2C89FB001112458
:104C0000072E000C880B990B0E94D83420E030E06E
:104C100048EC52E40E94F4330E94A034EE24E39462
:104C2000F12C0FE010E09B014FE050E06BE270E0F0
:104C300080E493E00E943319C43661F40AE010E086
:104C400024E030E041E150E061E570E080E493E091
:104C50000E943319CF911F910F91FF90EF90DF9039
:104C6000CF9008950E9405240E949D25E0E4F3E082
:104C700082E0848B8FE090E0958784878DE290E0DE
:104C80009787868760E970E0CF010E941A140E941E
:104C9000C61F0C9405241F920F920FB60F92112479
:104CA0002F933F938F939F93AF93BF938091710204
:104CB00090917202A0917302B091740230917002CF
:104CC00023E0230F2D3758F50196A11DB11D209328
:104CD00070028093710290937202A0937302B0935A
:104CE00074028091750290917602A0917702B09142
:104CF00078020196A11DB11D8093750290937602F2
:104D0000A0937702B0937802BF91AF919F918F915A
:104D10003F912F910F900FBE0F901F90189526E88E
:104D2000230F0296A11DB11DD2CF1F920F920FB675
:104D30000F9211242F933F934F935F936F937F9321
:104D40008F939F93AF93BF93EF93FF9380918702CD
:104D500090918802A0918902B0918A02892B8A2BB6
:104D60008B2BD1F190918202E0918302F091840229
:104D70008081892780838091870290918802A09109
:104D80008902B0918A02181619061A061B069CF4AD
:104D90008091870290918802A0918902B0918A0245
:104DA0000197A109B1098093870290938802A0938B
:104DB0008902B0938A02FF91EF91BF91AF919F91C9
:104DC0008F917F916F915F914F913F912F910F90B4
:104DD0000FBE0F901F901895809104010E94EE1352
:104DE000EACF1F920F920FB60F9211242F933F9389
:104DF0004F935F936F937F938F939F93AF93BF93E3
:104E0000EF93FF9387E992E00E94BC14FF91EF912A
:104E1000BF91AF919F918F917F916F915F914F91D2
:104E20003F912F910F900FBE0F901F9018951F92DA
:104E30000F920FB60F9211242F938F939F93EF939E
:104E4000FF93E091A702F091A8028081E091AD026A
:104E5000F091AE0282FD1BC090818091B0028F5F05
:104E60008F732091B102821741F0E091B002F0E01F
:104E7000E956FD4F958F8093B002FF91EF919F917E
:104E80008F912F910F900FBE0F901F9018958081DA
:104E9000F4CF1F920F920FB60F9211242F933F93CE
:104EA0004F935F936F937F938F939F93AF93BF9332
:104EB000EF93FF938091B900887F803609F44AC050
:104EC000F0F5883209F4A7C018F5803109F49BC0C9
:104ED000B8F4882309F4F9C0883009F494C0FF912C
:104EE000EF91BF91AF919F918F917F916F915F9162
:104EF0004F913F912F910F900FBE0F901F901895DB
:104F0000883109F488C0803251F780932A0214C096
:104F1000803409F49DC040F48033B9F38833F9F646
:104F200080932A0285ECB0C0803509F485C08835AD
:104F300009F496C0883499F60E949B1DD0CF883919
:104F400009F48CC038F5883729F050F4883611F010
:104F5000803729F683E080937F021092290257C0A0
:104F6000883809F47BC0803919F0803809F0B7CF50
:104F700080912902803208F071C0E091290281E01D
:104F80008E0F809329028091BB00F0E0E75FFD4F18
:104F900080833DC0803B39F0E0F4803A09F479C069
:104FA000883A09F09CCF84E080937F021092080237
:104FB00010920702E0917B02F0917C0209958091AA
:104FC000070281110FC081E0809307021092E70170
:104FD00009C0803C09F4A6CF883C09F4A3CF883BE4
:104FE00009F07DCFE091080281E08E0F80930802E6
:104FF000F0E0E951FE4F80818093BB009091080260
:105000008091070229C080914D028093BB0085ECFE
:105010008093BC0064CF90914C0280914B02981712
:1050200058F5E0914C0281E08E0F80934C02F0E045
:10503000E55DFD4F8081E9CFE0914C0281E08E0F6C
:1050400080934C028091BB00F0E0E55DFD4F8083D2
:1050500090914C0280914B029817C8F285E8D8CF06
:10506000E0914C0281E08E0F80934C028091BB0056
:10507000F0E0E55DFD4F808380917E0281115CCF81
:1050800081E080937D0284EA8093BC0010927F02CD
:1050900026CF85EC8093BC0010927F02809129027C
:1050A000803230F4E0912902F0E0E75FFD4F10829A
:1050B0006091290270E0E0917902F0917A0289E032
:1050C00092E00995109229020ACF10922A0234CF59
:1050D0002F923F924F925F926F927F928F929F9208
:1050E000AF92BF92CF92DF92EF92FF920F931F93F6
:1050F000CF93DF9300D000D000D0CDB7DEB76C01E6
:105100007C836B83AB014450510910E000E029E03F
:1051100030E0BC0180E493E00E94061A24E0422EB5
:10512000512C22242394312CF12CE12C24E030E06A
:105130003E832D8388EF9FEF9A8389834DEF642E02
:1051400077247A943FEFE31AF30A82E0280E311CA9
:10515000620C731C2D813E812E153F050CF45EC040
:105160004901880C991C3FEF831A930A10E000E074
:105170009401AB80BC808D819E81A81AB90AA501DB
:10518000B7016C0D7D1D80E493E00E94061A940126
:10519000A501B6016E197F0980E493E00E94061A0A
:1051A0002D813E814216530609F1AA24A394B12C05
:1051B000AE18BF088B819C81A80EB91EB601640D84
:1051C000751D10E000E0410192E0891A91089401F8
:1051D000A50180E493E00E94061AB60164197509DE
:1051E0009401A50180E493E00E94061A2D813E817E
:1051F000E216F306C4F48D819E8177FC0AC0C901D2
:10520000019729813A812E5F3F4F3A832983620EAD
:10521000731E4D805E809E838D8394CF2D813E8151
:105220004216530611F626960FB6F894DEBF0FBE4F
:10523000CDBFDF91CF911F910F91FF90EF90DF9045
:10524000CF90BF90AF909F908F907F906F905F9026
:105250004F903F902F9008958F929F92AF92BF9260
:10526000CF92DF92EF92FF921F93CF93DF93EC01E7
:105270006A017B01122FAB019601CB01B6010E949E
:1052800097366AE971E081111AC046015701E89426
:10529000B7F82FEF3FEF4FE75FE7C501B4010E947A
:1052A000973681111AC02FEF3FEF4FE75FE7C50137
:1052B000B4010E94EF33181684F46EE971E0CE0158
:1052C000DF91CF911F91FF90EF90DF90CF90BF9033
:1052D000AF909F908F900C9496242FEF3FEF4FE765
:1052E0005FE4C701B6010E94AF3518161CF462EAEC
:1052F00071E0E5CF2FEF3FEF4FE75FECC701B6015D
:105300000E94EF3387FDF3CF212FB701A601CE0115
:10531000DF91CF911F91FF90EF90DF90CF90BF90E2
:10532000AF909F908F900C940425E7E9F2E01382F0
:10533000128248EE53E060E070E044835583668358
:1053400077838BE491E09183808385EC90E095876F
:10535000848784EC90E09787868780EC90E0918B3F
:10536000808B81EC90E0938B828B82EC90E0958B2C
:10537000848B86EC90E0978B868B118E128E138E29
:10538000148EA4E3B3E013961C921E921297149607
:105390004D935D936D937C9317978DE591E01196F6
:1053A0009C938E93E0E4F3E01382128220E830E0D5
:1053B0003583248380E490E0978386833187208738
:1053C00093878287158A158614861786168681E04C
:1053D000848B2FEF3FEF338B228B318B208B868B8F
:1053E000178A118E108E8FE691E091838083138E41
:1053F000128EB58FA48F178E168E8FEF83A384A382
:1054000085A386A387A380E584AB15AA80E89AE1EB
:10541000A6E0B0E086AB97ABA0AFB1AF80EA96E86C
:10542000A1E0B0E082AF93AFA4AFB5AF0895CF9342
:10543000DF93CDB7DEB7A0970FB6F894DEBF0FBEEF
:10544000CDBF789484B5826084BD84B5816084BD0D
:1054500085B5826085BD85B5816085BD80916E0012
:10546000816080936E001092810080918100826043
:105470008093810080918100816080938100809180
:1054800080008160809380008091B100846080936F
:10549000B1008091B00081608093B00080917A006B
:1054A000846080937A0080917A00826080937A0091
:1054B00080917A00816080937A0080917A00806880
:1054C00080937A001092C10061E085E00E948C1008
:1054D00061E086E00E948C1061E08AE00E948C10FE
:1054E00061E089E00E948C1060E085E00E940E106F
:1054F00060E086E00E940E1060E08AE00E940E10DC
:1055000060E089E00E940E1061E08FE00E948C1044
:1055100061E080E10E948C1061E081E10E948C10CA
:1055200061E083E00E948C1060E084E00E948C10B7
:105530000E945A1088E08093BA008AE392E2909326
:105540004F0280934E0282E29EE19093510280933B
:1055500050021092B80061E08BE00E948C1061E074
:105560008CE00E948C1061E088E00E948C1061E069
:1055700087E00E948C1061E08DE00E948C1061E059
:105580008EE00E948C108EE00E94EE13E091A70244
:10559000F091A80282E08083E091A302F091A4023E
:1055A0001082E091A502F091A60280E18083109222
:1055B000AF02E091AB02F091AC0286E08083E09113
:1055C000A902F091AA02808180618083E091A90202
:1055D000F091AA02808188608083E091A902F09115
:1055E000AA02808180688083E091A902F091AA02DA
:1055F00080818F7D808380915E0390915F03892BF2
:1056000039F10E94052480914603909147036091EF
:10561000440370914503813291050CF0EFC4AC0155
:105620004052510957FF02C04F5F5F4F5595479554
:105630006357710977FF02C06F5F7F4F759567955C
:10564000F0E2EF2EF12C03E710E027ED3DE0EEC491
:105650002091460330914703C901079697FD0796AD
:1056600023E0959587952A95E1F7209144033091A1
:105670004503AC01429FC001439F900D529F900D86
:1056800011240E94333790935F0380935E03892B2C
:1056900009F0B7CF0E9405240E94C61F81E08093C5
:1056A000540381E090E090935303809352039093CE
:1056B00051038093500310924D0310924C031092AB
:1056C0004F0310924E0362EF7EE187E992E00E9461
:1056D0001A1422E04DEC5CEC6CE87FE387E992E081
:1056E0000E94042567E971E087E992E00E94962410
:1056F0008EEC9EE10E94A52461E081E00E94592386
:105700008B3F00F18BE992E10E94A52461E08BE0E0
:105710000E940E1061E08CE00E940E1064E670E0C2
:1057200080E090E00E94AF1360E08BE00E940E10DA
:1057300060E08CE00E940E1064E670E080E090E093
:105740000E94AF1361E086E00E9459238B3F00F175
:1057500083E992E10E94A52461E08BE00E940E1093
:1057600061E08CE00E940E1064E670E080E090E062
:105770000E94AF1360E08BE00E940E1060E08CE0AE
:105780000E940E1064E670E080E090E00E94AF138B
:1057900061E082E00E9459238B3F00F18CE892E1A6
:1057A0000E94A52461E08BE00E940E1061E08CE075
:1057B0000E940E1064E670E080E090E00E94AF135B
:1057C00060E08BE00E940E1060E08CE00E940E1002
:1057D00064E670E080E090E00E94AF1361E084E056
:1057E0000E9459238B3F00F185E892E10E94A52495
:1057F00061E08BE00E940E1061E08CE00E940E10D0
:1058000064E670E080E090E00E94AF1360E08BE01F
:105810000E940E1060E08CE00E940E1064E670E0C2
:1058200080E090E00E94AF1361E083E00E94592382
:105830008B3F00F18EE792E10E94A52461E08BE0AE
:105840000E940E1061E08CE00E940E1064E670E091
:1058500080E090E00E94AF1360E08BE00E940E10A9
:1058600060E08CE00E940E1064E670E080E090E062
:105870000E94AF1361E085E00E9459238B3F00F145
:1058800087E792E10E94A52461E08BE00E940E1060
:1058900061E08CE00E940E1064E670E080E090E031
:1058A0000E94AF1360E08BE00E940E1060E08CE07D
:1058B0000E940E1064E670E080E090E00E94AF135A
:1058C00062E370E080E090E00E94AF1361E082E06C
:1058D0000E948C1061E082E00E940E1060E08DE07A
:1058E0000E940E100E94DE234B015C0180926C022C
:1058F00090926D02A0926E02B0926F020E94AC2351
:105900006B017C01C0926802D0926902E0926A0247
:10591000F0926B0220E030E040E85FE30E948233C7
:1059200020E030E048E652E40E942A360E94A73484
:1059300060936402C501B4010E94D8342FE632E1BD
:1059400043E85AE30E942A3620E030E040E450E485
:105950000E94823320E030E040E452E40E942A3684
:105960000E94A73460936502109266022DEC3CEC15
:105970004CE550E4C701B6010E94AF3518160CF093
:105980001DC510925D020E94052481E0809354039E
:1059900070E4E72EF12C00E810E02DEA32E150E04F
:1059A00040E070E060E080E493E00E94191AE2E3D6
:1059B000AE2EB12CB0924D03A0924C03F7E3CF2E44
:1059C000D12CD0924F03C0924E036BEA72E180E477
:1059D00093E00E941A1422E04DEC5CEC6CE87FE34B
:1059E00080E493E00E942C290E94C61F64EF71E0BE
:1059F00080E090E00E94AF138CE0E9E2F1E0DE018C
:105A0000119601900D928A95E1F786E0E5E3F1E0C9
:105A1000DE011D9601900D928A95E1F746E0BE01E8
:105A2000635F7F4FCE0101960E9449210E940524A9
:105A30002DEA32E150E040E070E060E080E493E085
:105A40000E94191A67E170E08AE290E00E946828DB
:105A500069E170E088E390E00E946828B0924D030D
:105A6000A0924C03D0924F03C0924E0369EA72E1B8
:105A700080E493E00E941A1422E04DEC5CEC6CE8A8
:105A80007FE380E493E00E942C290E94C61F6CE211
:105A900071E080E090E00E94AF130E9405242DEA9F
:105AA00032E150E040E070E060E080E493E00E948A
:105AB000191AB0924D03A0924C03D0924F03C0929A
:105AC0004E0367EA72E180E493E00E941A1422E038
:105AD0004DEC5CEC6CE87FE380E493E00E942C29C1
